{
  "contractName": "test",
  "abi": [
    {
      "constant": true,
      "inputs": [],
      "name": "name",
      "outputs": [
        {
          "name": "",
          "type": "string"
        }
      ],
      "payable": false,
      "stateMutability": "view",
      "type": "function"
    },
    {
      "constant": false,
      "inputs": [
        {
          "name": "spender",
          "type": "address"
        },
        {
          "name": "value",
          "type": "uint256"
        }
      ],
      "name": "approve",
      "outputs": [
        {
          "name": "",
          "type": "bool"
        }
      ],
      "payable": false,
      "stateMutability": "nonpayable",
      "type": "function"
    },
    {
      "constant": false,
      "inputs": [
        {
          "name": "who",
          "type": "address"
        },
        {
          "name": "credit",
          "type": "uint256"
        },
        {
          "name": "expireDay",
          "type": "uint256"
        }
      ],
      "name": "setCreditToPay",
      "outputs": [
        {
          "name": "",
          "type": "bool"
        }
      ],
      "payable": false,
      "stateMutability": "nonpayable",
      "type": "function"
    },
    {
      "constant": true,
      "inputs": [],
      "name": "totalSupply",
      "outputs": [
        {
          "name": "",
          "type": "uint256"
        }
      ],
      "payable": false,
      "stateMutability": "view",
      "type": "function"
    },
    {
      "constant": true,
      "inputs": [
        {
          "name": "id",
          "type": "uint256"
        }
      ],
      "name": "isPushedToMe",
      "outputs": [
        {
          "name": "",
          "type": "bool"
        }
      ],
      "payable": false,
      "stateMutability": "view",
      "type": "function"
    },
    {
      "constant": false,
      "inputs": [
        {
          "name": "from",
          "type": "address"
        },
        {
          "name": "to",
          "type": "address"
        },
        {
          "name": "value",
          "type": "uint256"
        }
      ],
      "name": "transferFrom",
      "outputs": [
        {
          "name": "",
          "type": "bool"
        }
      ],
      "payable": false,
      "stateMutability": "nonpayable",
      "type": "function"
    },
    {
      "constant": false,
      "inputs": [
        {
          "name": "id",
          "type": "uint256"
        }
      ],
      "name": "refund",
      "outputs": [
        {
          "name": "",
          "type": "bool"
        }
      ],
      "payable": false,
      "stateMutability": "nonpayable",
      "type": "function"
    },
    {
      "constant": true,
      "inputs": [],
      "name": "decimals",
      "outputs": [
        {
          "name": "",
          "type": "uint8"
        }
      ],
      "payable": false,
      "stateMutability": "view",
      "type": "function"
    },
    {
      "constant": false,
      "inputs": [
        {
          "name": "id",
          "type": "uint256"
        }
      ],
      "name": "pull",
      "outputs": [
        {
          "name": "",
          "type": "bool"
        }
      ],
      "payable": false,
      "stateMutability": "nonpayable",
      "type": "function"
    },
    {
      "constant": false,
      "inputs": [
        {
          "name": "who",
          "type": "address"
        },
        {
          "name": "credit",
          "type": "uint256"
        }
      ],
      "name": "sendCredit",
      "outputs": [
        {
          "name": "",
          "type": "bool"
        }
      ],
      "payable": false,
      "stateMutability": "nonpayable",
      "type": "function"
    },
    {
      "constant": true,
      "inputs": [
        {
          "name": "who",
          "type": "address"
        }
      ],
      "name": "balanceOf",
      "outputs": [
        {
          "name": "",
          "type": "uint256"
        }
      ],
      "payable": false,
      "stateMutability": "view",
      "type": "function"
    },
    {
      "constant": false,
      "inputs": [
        {
          "name": "who",
          "type": "address"
        }
      ],
      "name": "setSupervisor",
      "outputs": [
        {
          "name": "",
          "type": "bool"
        }
      ],
      "payable": false,
      "stateMutability": "nonpayable",
      "type": "function"
    },
    {
      "constant": true,
      "inputs": [],
      "name": "symbol",
      "outputs": [
        {
          "name": "",
          "type": "string"
        }
      ],
      "payable": false,
      "stateMutability": "view",
      "type": "function"
    },
    {
      "constant": false,
      "inputs": [
        {
          "name": "to",
          "type": "address"
        },
        {
          "name": "value",
          "type": "uint256"
        }
      ],
      "name": "transfer",
      "outputs": [
        {
          "name": "ok",
          "type": "bool"
        }
      ],
      "payable": false,
      "stateMutability": "nonpayable",
      "type": "function"
    },
    {
      "constant": false,
      "inputs": [
        {
          "name": "id",
          "type": "uint256"
        },
        {
          "name": "message",
          "type": "string"
        }
      ],
      "name": "arbitrate",
      "outputs": [
        {
          "name": "",
          "type": "bool"
        }
      ],
      "payable": false,
      "stateMutability": "nonpayable",
      "type": "function"
    },
    {
      "constant": false,
      "inputs": [
        {
          "name": "id",
          "type": "uint256"
        },
        {
          "name": "to",
          "type": "address"
        }
      ],
      "name": "push",
      "outputs": [
        {
          "name": "",
          "type": "bool"
        }
      ],
      "payable": false,
      "stateMutability": "nonpayable",
      "type": "function"
    },
    {
      "constant": true,
      "inputs": [
        {
          "name": "owner",
          "type": "address"
        },
        {
          "name": "spender",
          "type": "address"
        }
      ],
      "name": "allowance",
      "outputs": [
        {
          "name": "",
          "type": "uint256"
        }
      ],
      "payable": false,
      "stateMutability": "view",
      "type": "function"
    },
    {
      "constant": false,
      "inputs": [
        {
          "name": "_materials",
          "type": "uint256[]"
        }
      ],
      "name": "produce",
      "outputs": [
        {
          "name": "id",
          "type": "uint256"
        }
      ],
      "payable": false,
      "stateMutability": "nonpayable",
      "type": "function"
    },
    {
      "anonymous": false,
      "inputs": [
        {
          "indexed": true,
          "name": "addr",
          "type": "address"
        },
        {
          "indexed": true,
          "name": "credit",
          "type": "uint256"
        },
        {
          "indexed": false,
          "name": "message",
          "type": "string"
        }
      ],
      "name": "noteArbitration",
      "type": "event"
    },
    {
      "anonymous": false,
      "inputs": [
        {
          "indexed": true,
          "name": "from",
          "type": "address"
        },
        {
          "indexed": true,
          "name": "to",
          "type": "address"
        },
        {
          "indexed": false,
          "name": "value",
          "type": "uint256"
        }
      ],
      "name": "Transfer",
      "type": "event"
    },
    {
      "anonymous": false,
      "inputs": [
        {
          "indexed": true,
          "name": "owner",
          "type": "address"
        },
        {
          "indexed": true,
          "name": "spender",
          "type": "address"
        },
        {
          "indexed": false,
          "name": "value",
          "type": "uint256"
        }
      ],
      "name": "Approval",
      "type": "event"
    },
    {
      "constant": false,
      "inputs": [
        {
          "name": "_vendor",
          "type": "address"
        },
        {
          "name": "_manufactor",
          "type": "address"
        },
        {
          "name": "_consumer",
          "type": "address"
        }
      ],
      "name": "testSupervisor",
      "outputs": [
        {
          "name": "ok",
          "type": "bool"
        }
      ],
      "payable": false,
      "stateMutability": "nonpayable",
      "type": "function"
    },
    {
      "constant": false,
      "inputs": [],
      "name": "testVendor",
      "outputs": [
        {
          "name": "ok",
          "type": "bool"
        }
      ],
      "payable": false,
      "stateMutability": "nonpayable",
      "type": "function"
    },
    {
      "constant": false,
      "inputs": [],
      "name": "testManufactor",
      "outputs": [
        {
          "name": "ok",
          "type": "bool"
        }
      ],
      "payable": false,
      "stateMutability": "nonpayable",
      "type": "function"
    },
    {
      "constant": false,
      "inputs": [],
      "name": "testArbitrate",
      "outputs": [
        {
          "name": "ok",
          "type": "bool"
        }
      ],
      "payable": false,
      "stateMutability": "nonpayable",
      "type": "function"
    }
  ],
  "bytecode": "0x608060405260646009556001600a556001600b5533600360006101000a81548173ffffffffffffffffffffffffffffffffffffffff021916908373ffffffffffffffffffffffffffffffffffffffff16021790555061268b806100636000396000f300608060405260043610610128576000357c0100000000000000000000000000000000000000000000000000000000900463ffffffff16806306fdde031461012d578063095ea7b3146101bd57806315b075291461022257806318160ddd146102915780631a3de90e146102bc5780631ba8e083146102eb57806323b872dd14610330578063278ecde1146103b55780632abd5be4146103fa578063313ce56714610429578063347624fd1461045a5780634d0392a814610489578063501781e8146104ce57806370a08231146105335780639299eb301461058a57806395d89b41146105e5578063a9059cbb14610675578063aa9b1503146106da578063ad4e9ce714610775578063c80fbe4e14610800578063dd62ed3e14610865578063f7c8941f146108dc575b600080fd5b34801561013957600080fd5b50610142610956565b6040518080602001828103825283818151815260200191508051906020019080838360005b83811015610182578082015181840152602081019050610167565b50505050905090810190601f1680156101af5780820380516001836020036101000a031916815260200191505b509250505060405180910390f35b3480156101c957600080fd5b50610208600480360381019080803573ffffffffffffffffffffffffffffffffffffffff1690602001909291908035906020019092919050505061098f565b604051808215151515815260200191505060405180910390f35b34801561022e57600080fd5b50610277600480360381019080803573ffffffffffffffffffffffffffffffffffffffff1690602001909291908035906020019092919080359060200190929190505050610a81565b604051808215151515815260200191505060405180910390f35b34801561029d57600080fd5b506102a6610b6f565b6040518082815260200191505060405180910390f35b3480156102c857600080fd5b506102d1610b78565b604051808215151515815260200191505060405180910390f35b3480156102f757600080fd5b5061031660048036038101908080359060200190929190505050610ccd565b604051808215151515815260200191505060405180910390f35b34801561033c57600080fd5b5061039b600480360381019080803573ffffffffffffffffffffffffffffffffffffffff169060200190929190803573ffffffffffffffffffffffffffffffffffffffff16906020019092919080359060200190929190505050610d47565b604051808215151515815260200191505060405180910390f35b3480156103c157600080fd5b506103e060048036038101908080359060200190929190505050610f63565b604051808215151515815260200191505060405180910390f35b34801561040657600080fd5b5061040f61103b565b604051808215151515815260200191505060405180910390f35b34801561043557600080fd5b5061043e611175565b604051808260ff1660ff16815260200191505060405180910390f35b34801561046657600080fd5b5061046f61117a565b604051808215151515815260200191505060405180910390f35b34801561049557600080fd5b506104b460048036038101908080359060200190929190505050611378565b604051808215151515815260200191505060405180910390f35b3480156104da57600080fd5b50610519600480360381019080803573ffffffffffffffffffffffffffffffffffffffff16906020019092919080359060200190929190505050611511565b604051808215151515815260200191505060405180910390f35b34801561053f57600080fd5b50610574600480360381019080803573ffffffffffffffffffffffffffffffffffffffff1690602001909291905050506115ce565b6040518082815260200191505060405180910390f35b34801561059657600080fd5b506105cb600480360381019080803573ffffffffffffffffffffffffffffffffffffffff169060200190929190505050611617565b604051808215151515815260200191505060405180910390f35b3480156105f157600080fd5b506105fa6116bc565b6040518080602001828103825283818151815260200191508051906020019080838360005b8381101561063a57808201518184015260208101905061061f565b50505050905090810190601f1680156106675780820380516001836020036101000a031916815260200191505b509250505060405180910390f35b34801561068157600080fd5b506106c0600480360381019080803573ffffffffffffffffffffffffffffffffffffffff169060200190929190803590602001909291905050506116f5565b604051808215151515815260200191505060405180910390f35b3480156106e657600080fd5b5061075b600480360381019080803573ffffffffffffffffffffffffffffffffffffffff169060200190929190803573ffffffffffffffffffffffffffffffffffffffff169060200190929190803573ffffffffffffffffffffffffffffffffffffffff16906020019092919050505061184b565b604051808215151515815260200191505060405180910390f35b34801561078157600080fd5b506107e660048036038101908080359060200190929190803590602001908201803590602001908080601f0160208091040260200160405190810160405280939291908181526020018383808284378201915050505050509192919290505050611b07565b604051808215151515815260200191505060405180910390f35b34801561080c57600080fd5b5061084b60048036038101908080359060200190929190803573ffffffffffffffffffffffffffffffffffffffff169060200190929190505050611c72565b604051808215151515815260200191505060405180910390f35b34801561087157600080fd5b506108c6600480360381019080803573ffffffffffffffffffffffffffffffffffffffff169060200190929190803573ffffffffffffffffffffffffffffffffffffffff169060200190929190505050611e92565b6040518082815260200191505060405180910390f35b3480156108e857600080fd5b5061094060048036038101908080359060200190820180359060200190808060200260200160405190810160405280939291908181526020018383602002808284378201915050505050509192919290505050611f19565b6040518082815260200191505060405180910390f35b6040805190810160405280600681526020017f437265646974000000000000000000000000000000000000000000000000000081525081565b600081600260003373ffffffffffffffffffffffffffffffffffffffff1673ffffffffffffffffffffffffffffffffffffffff16815260200190815260200160002060008573ffffffffffffffffffffffffffffffffffffffff1673ffffffffffffffffffffffffffffffffffffffff168152602001908152602001600020819055508273ffffffffffffffffffffffffffffffffffffffff163373ffffffffffffffffffffffffffffffffffffffff167f8c5be1e5ebec7d5bd14f71427d1e84f3dd0314c0f7b2291e5b200ac8c7c3b925846040518082815260200191505060405180910390a36001905092915050565b6000600460009054906101000a900473ffffffffffffffffffffffffffffffffffffffff1673ffffffffffffffffffffffffffffffffffffffff163373ffffffffffffffffffffffffffffffffffffffff16141515610adc57fe5b82600560008673ffffffffffffffffffffffffffffffffffffffff1673ffffffffffffffffffffffffffffffffffffffff1681526020019081526020016000208190555081600660008673ffffffffffffffffffffffffffffffffffffffff1673ffffffffffffffffffffffffffffffffffffffff16815260200190815260200160002081905550600190509392505050565b60008054905090565b60008060606000809350600d60009054906101000a900473ffffffffffffffffffffffffffffffffffffffff1673ffffffffffffffffffffffffffffffffffffffff163373ffffffffffffffffffffffffffffffffffffffff16141515610bdb57fe5b610c06600d60009054906101000a900473ffffffffffffffffffffffffffffffffffffffff166115ce565b92506000604051908082528060200260200182016040528015610c385781602001602082028038833980820191505090505b509150610c4482611f19565b60108190555060011515610c7c601054600e60009054906101000a900473ffffffffffffffffffffffffffffffffffffffff16611c72565b1515141515610c8757fe5b610cb2600d60009054906101000a900473ffffffffffffffffffffffffffffffffffffffff166115ce565b9050808303600a54141515610cc357fe5b6001935050505090565b600080610cd9836120ea565b90503373ffffffffffffffffffffffffffffffffffffffff168160040160009054906101000a900473ffffffffffffffffffffffffffffffffffffffff1673ffffffffffffffffffffffffffffffffffffffff161415610d3c5760019150610d41565b600091505b50919050565b600081600160008673ffffffffffffffffffffffffffffffffffffffff1673ffffffffffffffffffffffffffffffffffffffff1681526020019081526020016000205410151515610d9457fe5b81600260008673ffffffffffffffffffffffffffffffffffffffff1673ffffffffffffffffffffffffffffffffffffffff16815260200190815260200160002060003373ffffffffffffffffffffffffffffffffffffffff1673ffffffffffffffffffffffffffffffffffffffff1681526020019081526020016000205410151515610e1c57fe5b81600260008673ffffffffffffffffffffffffffffffffffffffff1673ffffffffffffffffffffffffffffffffffffffff16815260200190815260200160002060003373ffffffffffffffffffffffffffffffffffffffff1673ffffffffffffffffffffffffffffffffffffffff1681526020019081526020016000206000828254039250508190555081600160008673ffffffffffffffffffffffffffffffffffffffff1673ffffffffffffffffffffffffffffffffffffffff168152602001908152602001600020600082825403925050819055508273ffffffffffffffffffffffffffffffffffffffff168473ffffffffffffffffffffffffffffffffffffffff167fddf252ad1be2c89b69c2b068fc378daa952ba7f163c4a11628f55a4df523b3ef846040518082815260200191505060405180910390a3600190509392505050565b600080610f6f83612125565b610f78836120ea565b90503373ffffffffffffffffffffffffffffffffffffffff168160000160009054906101000a900473ffffffffffffffffffffffffffffffffffffffff1673ffffffffffffffffffffffffffffffffffffffff16141515610fd557fe5b62015180600660003373ffffffffffffffffffffffffffffffffffffffff1673ffffffffffffffffffffffffffffffffffffffff16815260200190815260200160002054028160050154014211156110315761103081612191565b5b6001915050919050565b6000806000806000600460009054906101000a900473ffffffffffffffffffffffffffffffffffffffff1673ffffffffffffffffffffffffffffffffffffffff163373ffffffffffffffffffffffffffffffffffffffff1614151561109c57fe5b600094506110a8610b6f565b93506110d5600e60009054906101000a900473ffffffffffffffffffffffffffffffffffffffff166115ce565b92506111186011546040805190810160405280601281526020017f5465737420466f72204172626974726174650000000000000000000000000000815250611b07565b50611144600e60009054906101000a900473ffffffffffffffffffffffffffffffffffffffff166115ce565b915061114e610b6f565b9050808403600a5414151561115f57fe5b818314151561116a57fe5b600194505050505090565b600081565b60008060006060600093506111b0600d60009054906101000a900473ffffffffffffffffffffffffffffffffffffffff166115ce565b9250600e60009054906101000a900473ffffffffffffffffffffffffffffffffffffffff1673ffffffffffffffffffffffffffffffffffffffff163373ffffffffffffffffffffffffffffffffffffffff1614151561120b57fe5b611216601054610ccd565b151561121e57fe5b611229601054611378565b151561123157fe5b61125c600d60009054906101000a900473ffffffffffffffffffffffffffffffffffffffff166115ce565b9150828203600a5414151561126d57fe5b600160405190808252806020026020018201604052801561129d5781602001602082028038833980820191505090505b5090506010548160008151811015156112b257fe5b90602001906020020181815250506112c981611f19565b6011819055506112fa600e60009054906101000a900473ffffffffffffffffffffffffffffffffffffffff166115ce565b925061132a601154600f60009054906101000a900473ffffffffffffffffffffffffffffffffffffffff16611c72565b151561133257fe5b61135d600e60009054906101000a900473ffffffffffffffffffffffffffffffffffffffff166115ce565b9150818303600a5414151561136e57fe5b6001935050505090565b600080611384836120ea565b90503373ffffffffffffffffffffffffffffffffffffffff168160040160009054906101000a900473ffffffffffffffffffffffffffffffffffffffff1673ffffffffffffffffffffffffffffffffffffffff161415156113e157fe5b6113ea81612191565b60008160040160006101000a81548173ffffffffffffffffffffffffffffffffffffffff021916908373ffffffffffffffffffffffffffffffffffffffff160217905550806001018160000160009054906101000a900473ffffffffffffffffffffffffffffffffffffffff1690806001815401808255809150509060018203906000526020600020016000909192909190916101000a81548173ffffffffffffffffffffffffffffffffffffffff021916908373ffffffffffffffffffffffffffffffffffffffff1602179055505060008160050181905550338160000160006101000a81548173ffffffffffffffffffffffffffffffffffffffff021916908373ffffffffffffffffffffffffffffffffffffffff1602179055506001915050919050565b6000600460009054906101000a900473ffffffffffffffffffffffffffffffffffffffff1673ffffffffffffffffffffffffffffffffffffffff163373ffffffffffffffffffffffffffffffffffffffff1614151561156c57fe5b81600160008573ffffffffffffffffffffffffffffffffffffffff1673ffffffffffffffffffffffffffffffffffffffff1681526020019081526020016000206000828254019250508190555081600080828254019250508190555092915050565b6000600160008373ffffffffffffffffffffffffffffffffffffffff1673ffffffffffffffffffffffffffffffffffffffff168152602001908152602001600020549050919050565b6000600360009054906101000a900473ffffffffffffffffffffffffffffffffffffffff1673ffffffffffffffffffffffffffffffffffffffff163373ffffffffffffffffffffffffffffffffffffffff1614151561167257fe5b81600460006101000a81548173ffffffffffffffffffffffffffffffffffffffff021916908373ffffffffffffffffffffffffffffffffffffffff16021790555060019050919050565b6040805190810160405280600381526020017f505452000000000000000000000000000000000000000000000000000000000081525081565b600081600160003373ffffffffffffffffffffffffffffffffffffffff1673ffffffffffffffffffffffffffffffffffffffff168152602001908152602001600020541015151561174257fe5b81600160003373ffffffffffffffffffffffffffffffffffffffff1673ffffffffffffffffffffffffffffffffffffffff1681526020019081526020016000206000828254039250508190555081600160008573ffffffffffffffffffffffffffffffffffffffff1673ffffffffffffffffffffffffffffffffffffffff168152602001908152602001600020600082825401925050819055508273ffffffffffffffffffffffffffffffffffffffff163373ffffffffffffffffffffffffffffffffffffffff167fddf252ad1be2c89b69c2b068fc378daa952ba7f163c4a11628f55a4df523b3ef846040518082815260200191505060405180910390a36001905092915050565b600080905061185933611617565b5083600d60006101000a81548173ffffffffffffffffffffffffffffffffffffffff021916908373ffffffffffffffffffffffffffffffffffffffff16021790555082600e60006101000a81548173ffffffffffffffffffffffffffffffffffffffff021916908373ffffffffffffffffffffffffffffffffffffffff16021790555081600f60006101000a81548173ffffffffffffffffffffffffffffffffffffffff021916908373ffffffffffffffffffffffffffffffffffffffff16021790555061194e600d60009054906101000a900473ffffffffffffffffffffffffffffffffffffffff16600a54600b54610a81565b50611980600e60009054906101000a900473ffffffffffffffffffffffffffffffffffffffff16600a54600b54610a81565b506119b2600f60009054906101000a900473ffffffffffffffffffffffffffffffffffffffff16600a54600b54610a81565b506119e1600d60009054906101000a900473ffffffffffffffffffffffffffffffffffffffff16600954611511565b50611a10600e60009054906101000a900473ffffffffffffffffffffffffffffffffffffffff16600954611511565b50611a3f600f60009054906101000a900473ffffffffffffffffffffffffffffffffffffffff16600954611511565b50600954611a6e600d60009054906101000a900473ffffffffffffffffffffffffffffffffffffffff166115ce565b141515611a7757fe5b600954611aa5600e60009054906101000a900473ffffffffffffffffffffffffffffffffffffffff166115ce565b141515611aae57fe5b600954611adc600f60009054906101000a900473ffffffffffffffffffffffffffffffffffffffff166115ce565b141515611ae557fe5b600360095402611af3610b6f565b141515611afc57fe5b600190509392505050565b600080600460009054906101000a900473ffffffffffffffffffffffffffffffffffffffff1673ffffffffffffffffffffffffffffffffffffffff163373ffffffffffffffffffffffffffffffffffffffff16141515611b6357fe5b611b6c846120ea565b9050806003015460008082825403925050819055506000816003018190555080600301548160000160009054906101000a900473ffffffffffffffffffffffffffffffffffffffff1673ffffffffffffffffffffffffffffffffffffffff167fba7270c9af44c12ae4e7f22ee0b06b8b892e64d30b2fefebdaa3c12d9daac5a3856040518080602001828103825283818151815260200191508051906020019080838360005b83811015611c2d578082015181840152602081019050611c12565b50505050905090810190601f168015611c5a5780820380516001836020036101000a031916815260200191505b509250505060405180910390a3600191505092915050565b6000806000600560003373ffffffffffffffffffffffffffffffffffffffff1673ffffffffffffffffffffffffffffffffffffffff16815260200190815260200160002054111515611cc057fe5b600560003373ffffffffffffffffffffffffffffffffffffffff1673ffffffffffffffffffffffffffffffffffffffff16815260200190815260200160002054600160003373ffffffffffffffffffffffffffffffffffffffff1673ffffffffffffffffffffffffffffffffffffffff1681526020019081526020016000205410151515611d4a57fe5b611d5384612125565b611d5c846120ea565b9050600560003373ffffffffffffffffffffffffffffffffffffffff1673ffffffffffffffffffffffffffffffffffffffff16815260200190815260200160002054600160003373ffffffffffffffffffffffffffffffffffffffff1673ffffffffffffffffffffffffffffffffffffffff16815260200190815260200160002060008282540392505081905550600560003373ffffffffffffffffffffffffffffffffffffffff1673ffffffffffffffffffffffffffffffffffffffff168152602001908152602001600020548160030160008282540192505081905550828160040160006101000a81548173ffffffffffffffffffffffffffffffffffffffff021916908373ffffffffffffffffffffffffffffffffffffffff160217905550428160050181905550600191505092915050565b6000600260008473ffffffffffffffffffffffffffffffffffffffff1673ffffffffffffffffffffffffffffffffffffffff16815260200190815260200160002060008373ffffffffffffffffffffffffffffffffffffffff1673ffffffffffffffffffffffffffffffffffffffff16815260200190815260200160002054905092915050565b6000611f236124b4565b611f2c83612219565b60e0604051908101604052803373ffffffffffffffffffffffffffffffffffffffff1681526020016000604051908082528060200260200182016040528015611f845781602001602082028038833980820191505090505b50815260200184815260200160008152602001600073ffffffffffffffffffffffffffffffffffffffff16815260200160008152602001600115158152509050611fcc612259565b9150806007600084815260200190815260200160002060008201518160000160006101000a81548173ffffffffffffffffffffffffffffffffffffffff021916908373ffffffffffffffffffffffffffffffffffffffff1602179055506020820151816001019080519060200190612045929190612520565b5060408201518160020190805190602001906120629291906125aa565b506060820151816003015560808201518160040160006101000a81548173ffffffffffffffffffffffffffffffffffffffff021916908373ffffffffffffffffffffffffffffffffffffffff16021790555060a0820151816005015560c08201518160060160006101000a81548160ff02191690831515021790555090505081915050919050565b6000806007600084815260200190815260200160002090508060060160009054906101000a900460ff16151561211c57fe5b80915050919050565b6000612130826120ea565b90508060000160009054906101000a900473ffffffffffffffffffffffffffffffffffffffff1673ffffffffffffffffffffffffffffffffffffffff163373ffffffffffffffffffffffffffffffffffffffff1614151561218d57fe5b5050565b6000816003015490506000826003018190555080600160008460000160009054906101000a900473ffffffffffffffffffffffffffffffffffffffff1673ffffffffffffffffffffffffffffffffffffffff1673ffffffffffffffffffffffffffffffffffffffff168152602001908152602001600020600082825401925050819055505050565b60008090505b815181101561225557612248828281518110151561223957fe5b90602001906020020151612125565b808060010191505061221f565b5050565b600060606000806000604080519080825280601f01601f1916602001820160405280156122955781602001602082028038833980820191505090505b5093503373ffffffffffffffffffffffffffffffffffffffff166001029250600860003373ffffffffffffffffffffffffffffffffffffffff1673ffffffffffffffffffffffffffffffffffffffff168152602001908152602001600020546001029150600860003373ffffffffffffffffffffffffffffffffffffffff1673ffffffffffffffffffffffffffffffffffffffff16815260200190815260200160002060008154809291906001019190505550600090505b602081101561244457828160208110151561236457fe5b1a7f010000000000000000000000000000000000000000000000000000000000000002848281518110151561239557fe5b9060200101907effffffffffffffffffffffffffffffffffffffffffffffffffffffffffffff1916908160001a90535081816020811015156123d357fe5b1a7f010000000000000000000000000000000000000000000000000000000000000002848260200181518110151561240757fe5b9060200101907effffffffffffffffffffffffffffffffffffffffffffffffffffffffffffff1916908160001a905350808060010191505061234d565b836040518082805190602001908083835b60208310151561247a5780518252602082019150602081019050602083039250612455565b6001836020036101000a03801982511681845116808217855250505050505090500191505060405180910390206001900494505050505090565b60e060405190810160405280600073ffffffffffffffffffffffffffffffffffffffff168152602001606081526020016060815260200160008152602001600073ffffffffffffffffffffffffffffffffffffffff168152602001600081526020016000151581525090565b828054828255906000526020600020908101928215612599579160200282015b828111156125985782518260006101000a81548173ffffffffffffffffffffffffffffffffffffffff021916908373ffffffffffffffffffffffffffffffffffffffff16021790555091602001919060010190612540565b5b5090506125a691906125f7565b5090565b8280548282559060005260206000209081019282156125e6579160200282015b828111156125e55782518255916020019190600101906125ca565b5b5090506125f3919061263a565b5090565b61263791905b8082111561263357600081816101000a81549073ffffffffffffffffffffffffffffffffffffffff0219169055506001016125fd565b5090565b90565b61265c91905b80821115612658576000816000905550600101612640565b5090565b905600a165627a7a72305820792e43036cc9cb4846296616cf2b9831ed103bd88b85a72fd88fb31ab242bc730029",
  "source": "pragma solidity ^0.4.24;\r\nimport \"./traceability.sol\";\r\n\r\ncontract test is TR {\r\n    uint256 credit = 100;\r\n    uint256 creditToPay = 1;\r\n    uint256 expireDays = 1;\r\n    address supervisor;\r\n    address vendor;\r\n    address manufactor;\r\n    address consumer;\r\n    \r\n    uint256 material_id; \r\n    uint256 production_id;\r\n\r\n    function testSupervisor(address _vendor, address _manufactor, address _consumer) public returns(bool ok) {\r\n        ok = false;\r\n        setSupervisor(msg.sender);\r\n        vendor = _vendor;\r\n        manufactor = _manufactor;\r\n        consumer = _consumer;\r\n        setCreditToPay(vendor, creditToPay, expireDays);\r\n        setCreditToPay(manufactor, creditToPay, expireDays);\r\n        setCreditToPay(consumer, creditToPay, expireDays);\r\n        sendCredit(vendor, credit);\r\n        sendCredit(manufactor, credit);\r\n        sendCredit(consumer, credit);\r\n        assert(balanceOf(vendor)==credit);\r\n        assert(balanceOf(manufactor)==credit);\r\n        assert(balanceOf(consumer)==credit);\r\n        assert(totalSupply()==credit*3);\r\n        ok = true;\r\n    }\r\n    function testVendor() public returns (bool ok) {\r\n        ok = false;\r\n        assert(msg.sender==vendor);\r\n        uint256 creditBefore = balanceOf(vendor);\r\n        uint256[] memory emptyArray = new uint256[](0);\r\n        material_id = produce(emptyArray);\r\n        assert(push(material_id, manufactor)==true);\r\n        uint256 creditAfter = balanceOf(vendor);\r\n        assert(creditToPay==(creditBefore-creditAfter));\r\n        ok = true;\r\n    }\r\n    function testManufactor() public returns (bool ok) {\r\n        ok = false;\r\n        uint256 creditBefore = balanceOf(vendor);\r\n        assert(msg.sender==manufactor);\r\n        assert(isPushedToMe(material_id));\r\n        assert(pull(material_id));\r\n        uint256 creditAfter = balanceOf(vendor);\r\n        assert(creditToPay==(creditAfter-creditBefore));\r\n        uint256[] memory source = new uint256[](1);\r\n        source[0] = material_id;\r\n\t\tproduction_id = produce(source);\r\n\t\tcreditBefore = balanceOf(manufactor);\r\n\t\tassert(push(production_id, consumer));\r\n\t\tcreditAfter = balanceOf(manufactor);\r\n        assert(creditToPay==(creditBefore-creditAfter));\r\n        ok = true;\r\n    }\r\n    function testArbitrate() public mustSupervisor returns (bool ok) {\r\n        ok = false;\r\n        uint256 supplyBefore = totalSupply();\r\n        uint256 creditBefore = balanceOf(manufactor);\r\n        arbitrate(production_id, \"Test For Arbitrate\"); \r\n        uint256 creditAfter = balanceOf(manufactor);\r\n        uint256 supplyAfter = totalSupply();\r\n        assert(creditToPay==(supplyBefore-supplyAfter));\r\n        assert(creditBefore==creditAfter);\r\n        ok = true;\r\n    }\r\n}",
  "sourcePath": "/workspace/traceability/contracts/traceability_test.sol",
  "compiler": {
    "name": "solc",
    "version": "0.4.24+commit.e67f0147.Emscripten.clang"
  },
  "schemaVersion": "2.0.1",
  "updatedAt": "2018-08-07T06:13:56.210Z"
}