{
  "contractName": "TR",
  "abi": [
    {
      "constant": true,
      "inputs": [],
      "name": "name",
      "outputs": [
        {
          "name": "",
          "type": "string"
        }
      ],
      "payable": false,
      "stateMutability": "view",
      "type": "function"
    },
    {
      "constant": false,
      "inputs": [
        {
          "name": "spender",
          "type": "address"
        },
        {
          "name": "value",
          "type": "uint256"
        }
      ],
      "name": "approve",
      "outputs": [
        {
          "name": "",
          "type": "bool"
        }
      ],
      "payable": false,
      "stateMutability": "nonpayable",
      "type": "function"
    },
    {
      "constant": false,
      "inputs": [
        {
          "name": "who",
          "type": "address"
        },
        {
          "name": "credit",
          "type": "uint256"
        },
        {
          "name": "expireDay",
          "type": "uint256"
        }
      ],
      "name": "setCreditToPay",
      "outputs": [
        {
          "name": "",
          "type": "bool"
        }
      ],
      "payable": false,
      "stateMutability": "nonpayable",
      "type": "function"
    },
    {
      "constant": true,
      "inputs": [],
      "name": "totalSupply",
      "outputs": [
        {
          "name": "",
          "type": "uint256"
        }
      ],
      "payable": false,
      "stateMutability": "view",
      "type": "function"
    },
    {
      "constant": false,
      "inputs": [
        {
          "name": "from",
          "type": "address"
        },
        {
          "name": "to",
          "type": "address"
        },
        {
          "name": "value",
          "type": "uint256"
        }
      ],
      "name": "transferFrom",
      "outputs": [
        {
          "name": "",
          "type": "bool"
        }
      ],
      "payable": false,
      "stateMutability": "nonpayable",
      "type": "function"
    },
    {
      "constant": true,
      "inputs": [],
      "name": "decimals",
      "outputs": [
        {
          "name": "",
          "type": "uint8"
        }
      ],
      "payable": false,
      "stateMutability": "view",
      "type": "function"
    },
    {
      "constant": false,
      "inputs": [
        {
          "name": "who",
          "type": "address"
        },
        {
          "name": "credit",
          "type": "uint256"
        }
      ],
      "name": "sendCredit",
      "outputs": [
        {
          "name": "",
          "type": "bool"
        }
      ],
      "payable": false,
      "stateMutability": "nonpayable",
      "type": "function"
    },
    {
      "constant": true,
      "inputs": [
        {
          "name": "who",
          "type": "address"
        }
      ],
      "name": "balanceOf",
      "outputs": [
        {
          "name": "",
          "type": "uint256"
        }
      ],
      "payable": false,
      "stateMutability": "view",
      "type": "function"
    },
    {
      "constant": false,
      "inputs": [
        {
          "name": "who",
          "type": "address"
        }
      ],
      "name": "setSupervisor",
      "outputs": [
        {
          "name": "",
          "type": "bool"
        }
      ],
      "payable": false,
      "stateMutability": "nonpayable",
      "type": "function"
    },
    {
      "constant": true,
      "inputs": [],
      "name": "symbol",
      "outputs": [
        {
          "name": "",
          "type": "string"
        }
      ],
      "payable": false,
      "stateMutability": "view",
      "type": "function"
    },
    {
      "constant": false,
      "inputs": [
        {
          "name": "to",
          "type": "address"
        },
        {
          "name": "value",
          "type": "uint256"
        }
      ],
      "name": "transfer",
      "outputs": [
        {
          "name": "ok",
          "type": "bool"
        }
      ],
      "payable": false,
      "stateMutability": "nonpayable",
      "type": "function"
    },
    {
      "constant": true,
      "inputs": [
        {
          "name": "owner",
          "type": "address"
        },
        {
          "name": "spender",
          "type": "address"
        }
      ],
      "name": "allowance",
      "outputs": [
        {
          "name": "",
          "type": "uint256"
        }
      ],
      "payable": false,
      "stateMutability": "view",
      "type": "function"
    },
    {
      "anonymous": false,
      "inputs": [
        {
          "indexed": true,
          "name": "addr",
          "type": "address"
        },
        {
          "indexed": true,
          "name": "credit",
          "type": "uint256"
        },
        {
          "indexed": false,
          "name": "message",
          "type": "string"
        }
      ],
      "name": "noteArbitration",
      "type": "event"
    },
    {
      "anonymous": false,
      "inputs": [
        {
          "indexed": true,
          "name": "from",
          "type": "address"
        },
        {
          "indexed": true,
          "name": "to",
          "type": "address"
        },
        {
          "indexed": false,
          "name": "value",
          "type": "uint256"
        }
      ],
      "name": "Transfer",
      "type": "event"
    },
    {
      "anonymous": false,
      "inputs": [
        {
          "indexed": true,
          "name": "owner",
          "type": "address"
        },
        {
          "indexed": true,
          "name": "spender",
          "type": "address"
        },
        {
          "indexed": false,
          "name": "value",
          "type": "uint256"
        }
      ],
      "name": "Approval",
      "type": "event"
    },
    {
      "constant": false,
      "inputs": [
        {
          "name": "_materials",
          "type": "uint256[]"
        }
      ],
      "name": "produce",
      "outputs": [
        {
          "name": "id",
          "type": "uint256"
        }
      ],
      "payable": false,
      "stateMutability": "nonpayable",
      "type": "function"
    },
    {
      "constant": false,
      "inputs": [
        {
          "name": "id",
          "type": "uint256"
        },
        {
          "name": "to",
          "type": "address"
        }
      ],
      "name": "push",
      "outputs": [
        {
          "name": "",
          "type": "bool"
        }
      ],
      "payable": false,
      "stateMutability": "nonpayable",
      "type": "function"
    },
    {
      "constant": false,
      "inputs": [
        {
          "name": "id",
          "type": "uint256"
        }
      ],
      "name": "pull",
      "outputs": [
        {
          "name": "",
          "type": "bool"
        }
      ],
      "payable": false,
      "stateMutability": "nonpayable",
      "type": "function"
    },
    {
      "constant": false,
      "inputs": [
        {
          "name": "id",
          "type": "uint256"
        },
        {
          "name": "message",
          "type": "string"
        }
      ],
      "name": "arbitrate",
      "outputs": [
        {
          "name": "",
          "type": "bool"
        }
      ],
      "payable": false,
      "stateMutability": "nonpayable",
      "type": "function"
    },
    {
      "constant": false,
      "inputs": [
        {
          "name": "id",
          "type": "uint256"
        }
      ],
      "name": "refund",
      "outputs": [
        {
          "name": "",
          "type": "bool"
        }
      ],
      "payable": false,
      "stateMutability": "nonpayable",
      "type": "function"
    },
    {
      "constant": true,
      "inputs": [
        {
          "name": "id",
          "type": "uint256"
        }
      ],
      "name": "isPushedToMe",
      "outputs": [
        {
          "name": "",
          "type": "bool"
        }
      ],
      "payable": false,
      "stateMutability": "view",
      "type": "function"
    }
  ],
  "bytecode": "0x608060405233600360006101000a81548173ffffffffffffffffffffffffffffffffffffffff021916908373ffffffffffffffffffffffffffffffffffffffff160217905550611dee806100546000396000f3006080604052600436106100fc576000357c0100000000000000000000000000000000000000000000000000000000900463ffffffff16806306fdde0314610101578063095ea7b31461019157806315b07529146101f657806318160ddd146102655780631ba8e0831461029057806323b872dd146102d5578063278ecde11461035a578063313ce5671461039f5780634d0392a8146103d0578063501781e81461041557806370a082311461047a5780639299eb30146104d157806395d89b411461052c578063a9059cbb146105bc578063ad4e9ce714610621578063c80fbe4e146106ac578063dd62ed3e14610711578063f7c8941f14610788575b600080fd5b34801561010d57600080fd5b50610116610802565b6040518080602001828103825283818151815260200191508051906020019080838360005b8381101561015657808201518184015260208101905061013b565b50505050905090810190601f1680156101835780820380516001836020036101000a031916815260200191505b509250505060405180910390f35b34801561019d57600080fd5b506101dc600480360381019080803573ffffffffffffffffffffffffffffffffffffffff1690602001909291908035906020019092919050505061083b565b604051808215151515815260200191505060405180910390f35b34801561020257600080fd5b5061024b600480360381019080803573ffffffffffffffffffffffffffffffffffffffff169060200190929190803590602001909291908035906020019092919050505061092d565b604051808215151515815260200191505060405180910390f35b34801561027157600080fd5b5061027a610a1b565b6040518082815260200191505060405180910390f35b34801561029c57600080fd5b506102bb60048036038101908080359060200190929190505050610a24565b604051808215151515815260200191505060405180910390f35b3480156102e157600080fd5b50610340600480360381019080803573ffffffffffffffffffffffffffffffffffffffff169060200190929190803573ffffffffffffffffffffffffffffffffffffffff16906020019092919080359060200190929190505050610a9e565b604051808215151515815260200191505060405180910390f35b34801561036657600080fd5b5061038560048036038101908080359060200190929190505050610cba565b604051808215151515815260200191505060405180910390f35b3480156103ab57600080fd5b506103b4610d92565b604051808260ff1660ff16815260200191505060405180910390f35b3480156103dc57600080fd5b506103fb60048036038101908080359060200190929190505050610d97565b604051808215151515815260200191505060405180910390f35b34801561042157600080fd5b50610460600480360381019080803573ffffffffffffffffffffffffffffffffffffffff16906020019092919080359060200190929190505050610f30565b604051808215151515815260200191505060405180910390f35b34801561048657600080fd5b506104bb600480360381019080803573ffffffffffffffffffffffffffffffffffffffff169060200190929190505050610fed565b6040518082815260200191505060405180910390f35b3480156104dd57600080fd5b50610512600480360381019080803573ffffffffffffffffffffffffffffffffffffffff169060200190929190505050611036565b604051808215151515815260200191505060405180910390f35b34801561053857600080fd5b506105416110db565b6040518080602001828103825283818151815260200191508051906020019080838360005b83811015610581578082015181840152602081019050610566565b50505050905090810190601f1680156105ae5780820380516001836020036101000a031916815260200191505b509250505060405180910390f35b3480156105c857600080fd5b50610607600480360381019080803573ffffffffffffffffffffffffffffffffffffffff16906020019092919080359060200190929190505050611114565b604051808215151515815260200191505060405180910390f35b34801561062d57600080fd5b5061069260048036038101908080359060200190929190803590602001908201803590602001908080601f016020809104026020016040519081016040528093929190818152602001838380828437820191505050505050919291929050505061126a565b604051808215151515815260200191505060405180910390f35b3480156106b857600080fd5b506106f760048036038101908080359060200190929190803573ffffffffffffffffffffffffffffffffffffffff1690602001909291905050506113d5565b604051808215151515815260200191505060405180910390f35b34801561071d57600080fd5b50610772600480360381019080803573ffffffffffffffffffffffffffffffffffffffff169060200190929190803573ffffffffffffffffffffffffffffffffffffffff1690602001909291905050506115f5565b6040518082815260200191505060405180910390f35b34801561079457600080fd5b506107ec6004803603810190808035906020019082018035906020019080806020026020016040519081016040528093929190818152602001838360200280828437820191505050505050919291929050505061167c565b6040518082815260200191505060405180910390f35b6040805190810160405280600681526020017f437265646974000000000000000000000000000000000000000000000000000081525081565b600081600260003373ffffffffffffffffffffffffffffffffffffffff1673ffffffffffffffffffffffffffffffffffffffff16815260200190815260200160002060008573ffffffffffffffffffffffffffffffffffffffff1673ffffffffffffffffffffffffffffffffffffffff168152602001908152602001600020819055508273ffffffffffffffffffffffffffffffffffffffff163373ffffffffffffffffffffffffffffffffffffffff167f8c5be1e5ebec7d5bd14f71427d1e84f3dd0314c0f7b2291e5b200ac8c7c3b925846040518082815260200191505060405180910390a36001905092915050565b6000600460009054906101000a900473ffffffffffffffffffffffffffffffffffffffff1673ffffffffffffffffffffffffffffffffffffffff163373ffffffffffffffffffffffffffffffffffffffff1614151561098857fe5b82600560008673ffffffffffffffffffffffffffffffffffffffff1673ffffffffffffffffffffffffffffffffffffffff1681526020019081526020016000208190555081600660008673ffffffffffffffffffffffffffffffffffffffff1673ffffffffffffffffffffffffffffffffffffffff16815260200190815260200160002081905550600190509392505050565b60008054905090565b600080610a308361184d565b90503373ffffffffffffffffffffffffffffffffffffffff168160040160009054906101000a900473ffffffffffffffffffffffffffffffffffffffff1673ffffffffffffffffffffffffffffffffffffffff161415610a935760019150610a98565b600091505b50919050565b600081600160008673ffffffffffffffffffffffffffffffffffffffff1673ffffffffffffffffffffffffffffffffffffffff1681526020019081526020016000205410151515610aeb57fe5b81600260008673ffffffffffffffffffffffffffffffffffffffff1673ffffffffffffffffffffffffffffffffffffffff16815260200190815260200160002060003373ffffffffffffffffffffffffffffffffffffffff1673ffffffffffffffffffffffffffffffffffffffff1681526020019081526020016000205410151515610b7357fe5b81600260008673ffffffffffffffffffffffffffffffffffffffff1673ffffffffffffffffffffffffffffffffffffffff16815260200190815260200160002060003373ffffffffffffffffffffffffffffffffffffffff1673ffffffffffffffffffffffffffffffffffffffff1681526020019081526020016000206000828254039250508190555081600160008673ffffffffffffffffffffffffffffffffffffffff1673ffffffffffffffffffffffffffffffffffffffff168152602001908152602001600020600082825403925050819055508273ffffffffffffffffffffffffffffffffffffffff168473ffffffffffffffffffffffffffffffffffffffff167fddf252ad1be2c89b69c2b068fc378daa952ba7f163c4a11628f55a4df523b3ef846040518082815260200191505060405180910390a3600190509392505050565b600080610cc683611888565b610ccf8361184d565b90503373ffffffffffffffffffffffffffffffffffffffff168160000160009054906101000a900473ffffffffffffffffffffffffffffffffffffffff1673ffffffffffffffffffffffffffffffffffffffff16141515610d2c57fe5b62015180600660003373ffffffffffffffffffffffffffffffffffffffff1673ffffffffffffffffffffffffffffffffffffffff1681526020019081526020016000205402816005015401421115610d8857610d87816118f4565b5b6001915050919050565b600081565b600080610da38361184d565b90503373ffffffffffffffffffffffffffffffffffffffff168160040160009054906101000a900473ffffffffffffffffffffffffffffffffffffffff1673ffffffffffffffffffffffffffffffffffffffff16141515610e0057fe5b610e09816118f4565b60008160040160006101000a81548173ffffffffffffffffffffffffffffffffffffffff021916908373ffffffffffffffffffffffffffffffffffffffff160217905550806001018160000160009054906101000a900473ffffffffffffffffffffffffffffffffffffffff1690806001815401808255809150509060018203906000526020600020016000909192909190916101000a81548173ffffffffffffffffffffffffffffffffffffffff021916908373ffffffffffffffffffffffffffffffffffffffff1602179055505060008160050181905550338160000160006101000a81548173ffffffffffffffffffffffffffffffffffffffff021916908373ffffffffffffffffffffffffffffffffffffffff1602179055506001915050919050565b6000600460009054906101000a900473ffffffffffffffffffffffffffffffffffffffff1673ffffffffffffffffffffffffffffffffffffffff163373ffffffffffffffffffffffffffffffffffffffff16141515610f8b57fe5b81600160008573ffffffffffffffffffffffffffffffffffffffff1673ffffffffffffffffffffffffffffffffffffffff1681526020019081526020016000206000828254019250508190555081600080828254019250508190555092915050565b6000600160008373ffffffffffffffffffffffffffffffffffffffff1673ffffffffffffffffffffffffffffffffffffffff168152602001908152602001600020549050919050565b6000600360009054906101000a900473ffffffffffffffffffffffffffffffffffffffff1673ffffffffffffffffffffffffffffffffffffffff163373ffffffffffffffffffffffffffffffffffffffff1614151561109157fe5b81600460006101000a81548173ffffffffffffffffffffffffffffffffffffffff021916908373ffffffffffffffffffffffffffffffffffffffff16021790555060019050919050565b6040805190810160405280600381526020017f505452000000000000000000000000000000000000000000000000000000000081525081565b600081600160003373ffffffffffffffffffffffffffffffffffffffff1673ffffffffffffffffffffffffffffffffffffffff168152602001908152602001600020541015151561116157fe5b81600160003373ffffffffffffffffffffffffffffffffffffffff1673ffffffffffffffffffffffffffffffffffffffff1681526020019081526020016000206000828254039250508190555081600160008573ffffffffffffffffffffffffffffffffffffffff1673ffffffffffffffffffffffffffffffffffffffff168152602001908152602001600020600082825401925050819055508273ffffffffffffffffffffffffffffffffffffffff163373ffffffffffffffffffffffffffffffffffffffff167fddf252ad1be2c89b69c2b068fc378daa952ba7f163c4a11628f55a4df523b3ef846040518082815260200191505060405180910390a36001905092915050565b600080600460009054906101000a900473ffffffffffffffffffffffffffffffffffffffff1673ffffffffffffffffffffffffffffffffffffffff163373ffffffffffffffffffffffffffffffffffffffff161415156112c657fe5b6112cf8461184d565b9050806003015460008082825403925050819055506000816003018190555080600301548160000160009054906101000a900473ffffffffffffffffffffffffffffffffffffffff1673ffffffffffffffffffffffffffffffffffffffff167fba7270c9af44c12ae4e7f22ee0b06b8b892e64d30b2fefebdaa3c12d9daac5a3856040518080602001828103825283818151815260200191508051906020019080838360005b83811015611390578082015181840152602081019050611375565b50505050905090810190601f1680156113bd5780820380516001836020036101000a031916815260200191505b509250505060405180910390a3600191505092915050565b6000806000600560003373ffffffffffffffffffffffffffffffffffffffff1673ffffffffffffffffffffffffffffffffffffffff1681526020019081526020016000205411151561142357fe5b600560003373ffffffffffffffffffffffffffffffffffffffff1673ffffffffffffffffffffffffffffffffffffffff16815260200190815260200160002054600160003373ffffffffffffffffffffffffffffffffffffffff1673ffffffffffffffffffffffffffffffffffffffff16815260200190815260200160002054101515156114ad57fe5b6114b684611888565b6114bf8461184d565b9050600560003373ffffffffffffffffffffffffffffffffffffffff1673ffffffffffffffffffffffffffffffffffffffff16815260200190815260200160002054600160003373ffffffffffffffffffffffffffffffffffffffff1673ffffffffffffffffffffffffffffffffffffffff16815260200190815260200160002060008282540392505081905550600560003373ffffffffffffffffffffffffffffffffffffffff1673ffffffffffffffffffffffffffffffffffffffff168152602001908152602001600020548160030160008282540192505081905550828160040160006101000a81548173ffffffffffffffffffffffffffffffffffffffff021916908373ffffffffffffffffffffffffffffffffffffffff160217905550428160050181905550600191505092915050565b6000600260008473ffffffffffffffffffffffffffffffffffffffff1673ffffffffffffffffffffffffffffffffffffffff16815260200190815260200160002060008373ffffffffffffffffffffffffffffffffffffffff1673ffffffffffffffffffffffffffffffffffffffff16815260200190815260200160002054905092915050565b6000611686611c17565b61168f8361197c565b60e0604051908101604052803373ffffffffffffffffffffffffffffffffffffffff16815260200160006040519080825280602002602001820160405280156116e75781602001602082028038833980820191505090505b50815260200184815260200160008152602001600073ffffffffffffffffffffffffffffffffffffffff1681526020016000815260200160011515815250905061172f6119bc565b9150806007600084815260200190815260200160002060008201518160000160006101000a81548173ffffffffffffffffffffffffffffffffffffffff021916908373ffffffffffffffffffffffffffffffffffffffff16021790555060208201518160010190805190602001906117a8929190611c83565b5060408201518160020190805190602001906117c5929190611d0d565b506060820151816003015560808201518160040160006101000a81548173ffffffffffffffffffffffffffffffffffffffff021916908373ffffffffffffffffffffffffffffffffffffffff16021790555060a0820151816005015560c08201518160060160006101000a81548160ff02191690831515021790555090505081915050919050565b6000806007600084815260200190815260200160002090508060060160009054906101000a900460ff16151561187f57fe5b80915050919050565b60006118938261184d565b90508060000160009054906101000a900473ffffffffffffffffffffffffffffffffffffffff1673ffffffffffffffffffffffffffffffffffffffff163373ffffffffffffffffffffffffffffffffffffffff161415156118f057fe5b5050565b6000816003015490506000826003018190555080600160008460000160009054906101000a900473ffffffffffffffffffffffffffffffffffffffff1673ffffffffffffffffffffffffffffffffffffffff1673ffffffffffffffffffffffffffffffffffffffff168152602001908152602001600020600082825401925050819055505050565b60008090505b81518110156119b8576119ab828281518110151561199c57fe5b90602001906020020151611888565b8080600101915050611982565b5050565b600060606000806000604080519080825280601f01601f1916602001820160405280156119f85781602001602082028038833980820191505090505b5093503373ffffffffffffffffffffffffffffffffffffffff166001029250600860003373ffffffffffffffffffffffffffffffffffffffff1673ffffffffffffffffffffffffffffffffffffffff168152602001908152602001600020546001029150600860003373ffffffffffffffffffffffffffffffffffffffff1673ffffffffffffffffffffffffffffffffffffffff16815260200190815260200160002060008154809291906001019190505550600090505b6020811015611ba7578281602081101515611ac757fe5b1a7f0100000000000000000000000000000000000000000000000000000000000000028482815181101515611af857fe5b9060200101907effffffffffffffffffffffffffffffffffffffffffffffffffffffffffffff1916908160001a9053508181602081101515611b3657fe5b1a7f0100000000000000000000000000000000000000000000000000000000000000028482602001815181101515611b6a57fe5b9060200101907effffffffffffffffffffffffffffffffffffffffffffffffffffffffffffff1916908160001a9053508080600101915050611ab0565b836040518082805190602001908083835b602083101515611bdd5780518252602082019150602081019050602083039250611bb8565b6001836020036101000a03801982511681845116808217855250505050505090500191505060405180910390206001900494505050505090565b60e060405190810160405280600073ffffffffffffffffffffffffffffffffffffffff168152602001606081526020016060815260200160008152602001600073ffffffffffffffffffffffffffffffffffffffff168152602001600081526020016000151581525090565b828054828255906000526020600020908101928215611cfc579160200282015b82811115611cfb5782518260006101000a81548173ffffffffffffffffffffffffffffffffffffffff021916908373ffffffffffffffffffffffffffffffffffffffff16021790555091602001919060010190611ca3565b5b509050611d099190611d5a565b5090565b828054828255906000526020600020908101928215611d49579160200282015b82811115611d48578251825591602001919060010190611d2d565b5b509050611d569190611d9d565b5090565b611d9a91905b80821115611d9657600081816101000a81549073ffffffffffffffffffffffffffffffffffffffff021916905550600101611d60565b5090565b90565b611dbf91905b80821115611dbb576000816000905550600101611da3565b5090565b905600a165627a7a72305820373f75ce7c96f644978ebcf2a8d28be9883310ba4c622b3a8c57427d8a23183e0029",
  "source": "pragma solidity ^0.4.24;\r\n\r\ncontract ERC20 {\r\n    function totalSupply() public constant returns (uint supply);\r\n    function balanceOf( address who ) public constant returns (uint value);\r\n    function allowance( address owner, address spender ) public constant returns (uint _allowance);\r\n\r\n    function transfer( address to, uint value) public returns (bool ok);\r\n    function transferFrom( address from, address to, uint value) public returns (bool ok);\r\n    function approve( address spender, uint value ) public returns (bool ok);\r\n\r\n    event Transfer( address indexed from, address indexed to, uint value);\r\n    event Approval( address indexed owner, address indexed spender, uint value);\r\n}\r\n\r\ncontract TRToken is ERC20 {\r\n\tstring public constant name = \"Credit\";\r\n\tstring public constant symbol = \"PTR\";\r\n\tuint8 public constant decimals = 0;\r\n\tuint256 supply;\r\n\tmapping (address => uint256) balances;\r\n\tmapping (address => mapping (address => uint256)) approvals;\r\n\r\n    function totalSupply() public constant returns (uint) {\r\n    \treturn supply;\r\n    }\r\n    function balanceOf( address who ) public constant returns (uint) {\r\n    \treturn balances[who];\r\n    }\r\n    function allowance( address owner, address spender ) public constant returns (uint) {\r\n    \treturn approvals[owner][spender];\r\n    }\r\n\r\n    function transfer( address to, uint value) public returns (bool ok) {\r\n    \tassert(balances[msg.sender] >= value);\r\n    \tbalances[msg.sender] -= value;\r\n    \tbalances[to] += value;\r\n    \temit Transfer(msg.sender, to, value);\r\n    \treturn true;\r\n    }\r\n    function transferFrom( address from, address to, uint value) public returns (bool) {\r\n    \tassert(balances[from]>=value);\r\n    \tassert(approvals[from][msg.sender]>=value);\r\n    \tapprovals[from][msg.sender] -= value;\r\n    \tbalances[from] -= value;\r\n    \temit Transfer(from, to, value);\r\n    \treturn true;\r\n    }\r\n    function approve( address spender, uint value ) public returns (bool) {\r\n\t    approvals[msg.sender][spender] = value;\r\n\t\temit Approval(msg.sender, spender, value);\r\n\t\treturn true;\r\n    }\r\n}\r\n\r\ncontract TRSupervise is TRToken {\r\n\taddress generator;\r\n\taddress supervisor;\t\r\n\tmapping (address => uint256) creditToPay;\r\n\tmapping (address => uint256) creditExpire;\r\n\tmodifier mustGenerator {\r\n\t   assert(msg.sender==generator); \r\n\t   _;\r\n\t}\r\n\tmodifier mustSupervisor {\r\n\t    assert(msg.sender==supervisor);\r\n\t    _;\r\n\t}\r\n\tmodifier mustPay {\r\n\t   assert(creditToPay[msg.sender]>0); \r\n\t   assert(creditToPay[msg.sender]<=balances[msg.sender]); \r\n\t   _;\r\n\t}\r\n\r\n\tconstructor() public {\r\n\t    generator=msg.sender;\r\n\t}\r\n\tfunction setSupervisor( address who ) public mustGenerator returns (bool) {\r\n\t    supervisor = who;\r\n\t    return true;\r\n\t}\r\n\tfunction setCreditToPay( address who, uint credit, uint expireDay ) public mustSupervisor returns (bool) {\r\n\t    creditToPay[who] = credit;\r\n\t    creditExpire[who] = expireDay;\r\n\t    return true;\r\n\t}\r\n\tfunction sendCredit( address who, uint credit ) public mustSupervisor returns (bool) {\r\n\t    balances[who] += credit;\r\n\t\tsupply += credit;\r\n\t}\r\n}\r\n\r\ncontract TR is TRSupervise {\r\n    struct Object {\r\n        address owner;\r\n        address[] exOwners;\r\n        uint256[] materials;\r\n        uint256 credit;\r\n        address receiver;\r\n        uint256 pushTime;\r\n        bool valid;\r\n    }\r\n    mapping (uint256=>Object) objects;\r\n    mapping (address=>uint256) objectCount;\r\n    event noteArbitration(\r\n        address indexed addr, \r\n        uint256 indexed credit, \r\n        string message\r\n    ); \r\n    \r\n    modifier mustPay {\r\n        assert( creditToPay[msg.sender] > 0 );\r\n        assert( balances[msg.sender] >= creditToPay[msg.sender] );\r\n        _;\r\n    }\r\n    function getObjectById(uint256 id) private constant returns (Object storage) {\r\n        Object storage obj = objects[id];\r\n        assert(obj.valid);\r\n        return obj;\r\n    }\r\n    function checkOwnerOfObject(uint256 id) private constant {\r\n        Object storage obj = getObjectById(id);\r\n\t\tassert(msg.sender==obj.owner);\r\n    }\r\n    function checkOwnerOfMaterials(uint256[] ids) private constant {\r\n        uint256 i;\r\n        for(i=0;i<ids.length;i++) {\r\n            checkOwnerOfObject(ids[i]);\r\n        }\r\n    }\r\n    function returnCreditToOwner(Object storage obj) private {\r\n\t\tuint256 creditToReturn = obj.credit;\r\n        obj.credit = 0;\r\n      \tbalances[obj.owner] += creditToReturn;\r\n    }\r\n    function createObjectId() private returns (uint256 id) {\r\n        bytes memory b = new bytes(64);\r\n        bytes32 addr32 = bytes32(msg.sender);\r\n        bytes32 count32 = bytes32( objectCount[msg.sender] );\r\n        objectCount[msg.sender]++;\r\n        for (uint i=0; i<32; i++) {\r\n            b[i] = addr32[i];\r\n            b[32+i] = count32[i];\r\n        }\r\n        id = uint256(keccak256(b));\r\n    }\r\n    function produce(uint256[] _materials) public returns (uint256 id) {\r\n        checkOwnerOfMaterials(_materials);\r\n        Object memory obj = Object ({\r\n            owner: msg.sender,\r\n            exOwners: new address[](0),\r\n            materials: _materials,\r\n            receiver: 0,\r\n            pushTime: 0,\r\n            credit: 0,\r\n            valid: true\r\n        });\r\n        id = createObjectId();\r\n\t\tobjects[id] = obj;\r\n\t\treturn id;\r\n    }\r\n    function push(uint256 id, address to) public mustPay returns (bool) {\r\n        checkOwnerOfObject(id);\r\n        Object storage obj = getObjectById(id);\r\n \t\tbalances[msg.sender] -= creditToPay[msg.sender];\t\r\n\t\tobj.credit += creditToPay[msg.sender];\r\n        obj.receiver = to;\r\n        obj.pushTime = now;\r\n        return true;\r\n    }\r\n    function pull(uint256 id) public returns (bool) {\r\n        Object storage obj = getObjectById(id);\r\n        assert(obj.receiver==msg.sender);\r\n\t\treturnCreditToOwner(obj);\r\n        obj.receiver = 0;\r\n        obj.exOwners.push(obj.owner);\r\n        obj.pushTime = 0;\r\n\t\tobj.owner = msg.sender;\r\n        return true;\r\n    }\r\n    function arbitrate(uint256 id, string message) public mustSupervisor returns (bool) {\r\n        Object storage obj = getObjectById(id);\r\n        supply -= obj.credit;\r\n        obj.credit = 0;\r\n\t\temit noteArbitration(obj.owner, obj.credit, message);\r\n        return true;\r\n    }\r\n\tfunction refund(uint256 id) public returns (bool) {\r\n        checkOwnerOfObject(id);\r\n        Object storage obj = getObjectById(id);\r\n        assert(obj.owner==msg.sender);\r\n        if(now > obj.pushTime + creditExpire[msg.sender]* 1 days) {\r\n\t\t\treturnCreditToOwner(obj);\r\n        }\r\n        return true;\r\n\t}\r\n\tfunction isPushedToMe(uint256 id) public constant returns (bool) {\r\n\t    Object storage obj = getObjectById(id);\r\n\t    if(obj.receiver==msg.sender) {\r\n\t        return true;\r\n\t    }\r\n\t    return false;\r\n\t}\r\n}",
  "sourcePath": "/workspace/traceability/contracts/traceability.sol",
  "compiler": {
    "name": "solc",
    "version": "0.4.24+commit.e67f0147.Emscripten.clang"
  },
  "schemaVersion": "2.0.1",
  "updatedAt": "2018-08-07T06:13:56.148Z"
}